:020000020000FC
:0200000033C00B
:1000680008E00EBF0FEF0DBFA0E0B1E000E3002EE7
:1000780001E3102E0DE0402E04E0502E44275527B2
:100088006627332722273324F598F498F39877279F
:1000980088279927CC27DD27EE2702E0602E0AE182
:1000A800702E4CE053E968EF35D04AE85AEA68E028
:1000B80031D045E452E768EE2DD044E35AE668EEC5
:1000C80029D041E052E168EE25D045ED5AE368E0D9
:1000D80021D049E953E068EF1DD047E658E460E0D5
:1000E80019D04AEA5BE268E815D042E754EF60E5C8
:1000F80011D048EE57EE60E80DD041E359E668E2CA
:1001080009D04BEF5BEE60E505D00FEF4027502795
:1001180060270EC0761481F03431B9F33131A9F378
:100128003B3099F3383089F3353079F3323069F35D
:10013800303021F40C94D3000C94CE00313011F4FB
:100148000C941401323011F40C946101333011F421
:100158000C94A201343011F40C94D300353011F40E
:100168000C941401363011F40C946101373011F4F9
:100178000C94A201383011F40C94D300393011F4E6
:100188000C9414013A3011F40C9461013B3011F4D1
:100198000C94A2017FE222D1A0E0B1E00895441FAF
:1001A80008F4786013D108F4726010D108F48068FC
:1001B8000DD108F480620AD108F4886007D108F4E8
:1001C800826004D108F4906801D108F4906200D1EB
:1001D80008F49860FDD008F49260FAD008F4C0687A
:1001E800F7D008F4C0623830C9F4F2D008F4C86017
:1001F800EFD008F4C260ECD0EBD008F4D068EAD0B5
:1002080008F4D062E7D008F4D860E4D008F4D260EB
:10021800E1D008F4E068DED008F4E0623395089590
:10022800441F08F47460D2D008F47160CFD008F489
:100238008064CCD008F48061C9D008F48460C6D04A
:1002480008F48160C3D008F49064C0D008F49061C9
:10025800BFD008F49460BCD008F49160B9D008F419
:10026800C064B6D008F4C0613930C9F4B1D008F41C
:10027800C460AED008F4C160ABD0AAD008F4D06492
:10028800A9D008F4D061A6D008F4D460A3D008F4AB
:10029800D160A0D008F4E0649DD008F4E06131306A
:1002A80019F4782E760C739499D09DD0A1D039305A
:1002B80011F4A3D0A7D033950895441F08F47062B1
:1002C80085D008F4706882D008F482607FD008F482
:1002D80088607CD008F4806279D008F4806876D091
:1002E80008F4926073D008F4986072D008F49062B1
:1002F8006FD008F490686CD008F4C26069D008F434
:10030800C8603A30C9F464D008F4C06261D008F417
:10031800C0685ED05DD008F4D2605CD008F4D860C4
:1003280059D008F4D06256D008F4D06853D008F4F5
:10033800E26050D008F4E86033950895441F08F44B
:10034800706144D008F4706441D008F481603ED0F4
:1003580008F484603BD008F4806138D008F48064E5
:1003680035D008F4916032D008F4946031D008F4A4
:1003780090612ED008F490642BD008F4C16028D086
:1003880008F4C4603B30C9F423D008F4C06120D01D
:1003980008F4C0641DD01CD008F4D1601BD008F448
:1003A800D46018D008F4D06115D008F4D06412D005
:1003B80008F4E1600FD008F4E4603B3011F427D072
:1003C80021D01BD015D00FD033950895441F089520
:1003D800551F0895661F089533950895E72EED92E9
:1003E800772763940895E82EED92882763940895FB
:1003F800E92EED92992763940895EC2EED92CC277F
:1004080063940895ED2EED92DD2763940895EE2E02
:08041800ED92EE2763940895B4
:00000001FF
